:020000040800F2
:1000000000000320A13D00088D2F0008932F000859
:10001000992F00089F2F0008A52F0008000000005E
:10002000000000000000000000000000AB2F0008EE
:10003000B92F000800000000C72F0008D52F0008C6
:10004000F13D0008F13D0008F13D0008F13D0008D8
:10005000F13D0008F13D0008F13D0008F13D0008C8
:10006000F13D0008F13D0008F13D0008F13D0008B8
:10007000F13D0008F13D0008E12F0008F13D0008C6
:10008000F13D0008F52F0008F13D0008F13D0008A2
:10009000F13D0008F13D0008F13D0008F13D000888
:1000A000F13D0008F13D0008F13D0008F13D000878
:1000B00009300008F13D0008F13D0008F13D00085D
:1000C000F13D0008F13D0008F13D0008F13D000858
:1000D000F13D0008F13D00081D30000831300008F6
:1000E000F13D0008F13D0008F13D0008F13D000838
:1000F000F13D0008F13D0008F13D0008F13D000828
:10010000F13D000845300008F13D0008F13D0008D0
:10011000F13D0008F13D0008F13D0008F13D000807
:10012000593000086D300008F13D000881300008AA
:10013000F13D0008F13D0008F13D0008F13D0008E7
:10014000F13D0008F13D0008F13D00089530000840
:10015000F13D0008F13D0008F13D0008F13D0008C7
:10016000F13D0008F13D0008F13D0008F13D0008B7
:10017000F13D0008F13D0008F13D000800000000DD
:10018000F13D0008F13D0008F13D0008F13D000897
:10019000A9300008F13D0008F13D0008F13D0008DC
:0C01A000F13D0008F13D0008F13D0008B1
:1001B00010B5054C237833B9044B13B10448AFF3A1
:1001C00000800123237010BD9C010020000000006E
:1001D0008859010808B5034B1BB103490348AFF325
:1001E000008008BD00000000A0010020885901081F
:1001F000034613F8012B002AFBD1181A0138704767
:1002000001F0FF01102A2BDB10F0070F08D010F8C7
:10021000013B013A8B422DD010F0070F42B3F6D1CB
:10022000F0B441EA012141EA014122F007047FF0E4
:1002300000070023F0E80256083C85EA010586EA3B
:10024000010685FA47F5A3FA87F586FA47F6A5FA77
:1002500087F68EB9EED1F0BC01F0FF0102F0070283
:1002600032B110F8013B013A83EA010313B1F8D12E
:100270000020704701387047002D06BF354603380F
:10028000073815F0010F07D1013015F4807F02BF48
:10029000013015F4C03F0130F0BC0138704700BF99
:1002A0007BB972B90029BEBF00204FF0004106E0C3
:1002B00008BF00281CBF6FF000414FF0FF3000F076
:1002C000BFB9ADF1080C6DE904CE002909DB002BA4
:1002D0001ADB00F04DF8DDF804E0DDE9022304B09C
:1002E0007047404261EB4101002B1BDB00F040F8FE
:1002F000DDF804E0DDE9022304B0404261EB410196
:10030000524263EB43037047524263EB430300F0F6
:100310002FF8DDF804E0DDE9022304B0404261EB90
:1003200041017047524263EB430300F021F8DDF8CE
:1003300004E0DDE9022304B0524263EB430370475B
:1003400053B94AB9002908BF00281CBF4FF0FF313C
:100350004FF0FF3000F074B9ADF1080C6DE904CE38
:1003600000F006F8DDF804E0DDE9022304B0704790
:100370002DE9F047089D04468E46002B4DD18A4258
:10038000944669D9B2FA82F252B101FA02F3C2F18B
:10039000200120FA01F10CFA02FC41EA030E94401C
:1003A0004FEA1C48210CBEFBF8F61FFA8CF708FB3D
:1003B00016E341EA034306FB07F199420AD91CEB15
:1003C000030306F1FF3080F01F81994240F21C8147
:1003D000023E63445B1AA4B2B3FBF8F008FB10338F
:1003E00044EA034400FB07F7A7420AD91CEB0404C4
:1003F00000F1FF3380F00A81A74240F20781644494
:10040000023840EA0640E41B00261DB1D440002318
:10041000C5E900433146BDE8F0878B4209D9002D7C
:1004200000F0EF800026C5E9000130463146BDE806
:10043000F087B3FA83F6002E4AD18B4202D3824270
:1004400000F2F980841A61EB030301209E46002D1F
:10045000E0D0C5E9004EDDE702B9FFDEB2FA82F274
:10046000002A40F09280A1EB0C014FEA1C471FFAD2
:100470008CFE0126200CB1FBF7F307FB131140EAB9
:1004800001410EFB03F0884208D91CEB010103F186
:10049000FF3802D2884200F2CB804346091AA4B248
:1004A000B1FBF7F007FB101144EA01440EFB00FE1C
:1004B000A64508D91CEB040400F1FF3102D2A64581
:1004C00000F2BB800846A4EB0E0440EA03409CE720
:1004D000C6F12007B34022FA07FC4CEA030C20FACD
:1004E00007F401FA06F31C43F9404FEA1C4900FAED
:1004F00006F3B1FBF9F8200C1FFA8CFE09FB18116A
:1005000040EA014108FB0EF0884202FA06F20BD9DC
:100510001CEB010108F1FF3A80F08880884240F22C
:100520008580A8F102086144091AA4B2B1FBF9F070
:1005300009FB101144EA014100FB0EFE8E4508D96B
:100540001CEB010100F1FF346CD28E456AD90238F0
:10055000614440EA0840A0FB0294A1EB0E01A142D5
:10056000C846A64656D353D05DB1B3EB080261EB43
:100570000E0101FA07F722FA06F3F1401F43C5E91D
:10058000007100263146BDE8F087C2F12003D84053
:100590000CFA02FC21FA03F3914001434FEA1C4795
:1005A0001FFA8CFEB3FBF7F007FB10360B0C43EA87
:1005B000064300FB0EF69E4204FA02F408D91CEB37
:1005C000030300F1FF382FD29E422DD90238634435
:1005D0009B1B89B2B3FBF7F607FB163341EA0341D5
:1005E00006FB0EF38B4208D91CEB010106F1FF3824
:1005F00016D28B4214D9023E6144C91A46EA00461B
:1006000038E72E46284605E70646E3E61846F8E6AC
:100610004B45A9D2B9EB020864EB0C0E0138A3E7F5
:100620004646EAE7204694E74046D1E7D0467BE7D6
:10063000023B614432E7304609E76444023842E74E
:10064000704700BF80B400AFBFF34F8F00BF064BB1
:10065000DB6803F4E0620449044B1343CB60BFF34F
:100660004F8F00BF00BFFDE700ED00E00400FA057A
:1006700080B485B000AF78607B6800229A707B6898
:100680009A787B685A700023FB731BE0FA7B97F91A
:100690000F00796813469B0013440B440333024652
:1006A0001A70FA7B796813469B0013440B440022AE
:1006B0001A7100225A7100229A710022DA71FB7BB2
:1006C0000133FB73FB7B0F2BE0D901231846143752
:1006D000BD465DF8047B704780B485B000AF78609C
:1006E0003960FF23FB733B685B7819463A680B4619
:1006F0009B000B4413445B68002B21D13B685B7863
:1007000019463A680B469B000B4413447A685A60BA
:100710003B685B7819463A680B469B000B441344D0
:1007200003331B78FB733B685B780133DAB23B68B9
:100730005A703B685B780F2B02D93B6800225A70D5
:1007400097F90F3018461437BD465DF8047B7047A3
:1007500080B584B000AF78603960FF23FB7300235D
:10076000BB603B689B7819463A680B469B000B447C
:1007700013445B68002B42D03B689B7819463A686B
:100780000B469B000B4413445B681846FFF730FD93
:100790000346BB603B689B7819463A680B469B0052
:1007A0000B44134403331B78FB733B689B78194657
:1007B0003A680B469B000B4413445B68BA681946C1
:1007C000786814F041FB3B689B7819463A680B4601
:1007D0009B000B4413445B68184614F02DFB3B68E8
:1007E0009B7819463A680B469B000B441344002241
:1007F0001A7100225A7100229A710022DA7197F957
:100800000F30002B11DBBB687A68134400221A708A
:100810003B689B780133DAB23B689A703B689B78FF
:100820000F2B02D93B6800229A7097F90F301846B7
:100830001037BD4680BD000080B483B000AF786043
:100840007B680133142B55D801A252F823F000BF66
:10085000A5080008A9080008AD080008B1080008AC
:10086000B5080008B9080008BD080008C10800085C
:10087000C5080008C5080008C9080008CD08000818
:10088000D1080008D5080008D9080008DD080008CC
:10089000E1080008E5080008E9080008ED0800087C
:1008A000F1080008174B26E0174B24E0174B22E015
:1008B000174B20E0174B1EE0174B1CE0174B1AE0BC
:1008C000174B18E0174B16E0174B14E0174B12E0CC
:1008D000174B10E0174B0EE0174B0CE0174B0AE0DC
:1008E000174B08E0174B06E0174B04E0174B02E0EC
:1008F000174B00E0174B18460C37BD465DF8047BDC
:10090000704700BFB0590108B8590108C45901081F
:10091000D4590108E8590108F8590108005A01089A
:10092000085A0108145A0108245A0108385A0108C3
:10093000485A0108605A0108705A0108885A01088B
:100940009C5A0108AC5A0108B85A0108CC5A01084F
:10095000DC5A0108F05A010880B483B000AF0346A6
:10096000FB71FB79013B1F2B4CD801A252F823F0FD
:10097000F1090008F5090008050A0008F90900084E
:10098000050A0008050A0008050A0008050A00080B
:10099000050A0008050A0008050A0008050A0008FB
:1009A000050A0008050A0008050A0008FD090008F4
:1009B000050A0008050A0008050A0008050A0008DB
:1009C000050A0008050A0008050A0008050A0008CB
:1009D000050A0008050A0008050A0008050A0008BB
:1009E000050A0008050A0008050A0008010A0008AF
:1009F000084B08E0084B06E0084B04E0084B02E017
:100A0000084B00E0084B18460C37BD465DF8047BE8
:100A1000704700BF005B01080C5B0108145B010814
:100A20001C5B0108285B0108305B010880B483B0BF
:100A300000AF0346FB71FB79013B072B1CD801A2D9
:100A400052F823F0650A0008690A0008790A0008CC
:100A50006D0A0008790A0008790A0008710A00087E
:100A6000750A0008084B08E0084B06E0084B04E054
:100A7000084B02E0084B00E0084B18460C37BD4617
:100A80005DF8047B704700BF385B0108405B0108DC
:100A90004C5B0108585B0108605B0108685B01085A
:100AA000B0B588B004AF78600223BB6001227968DA
:100AB000404811F0D9FE0346FB73FB7B0D2B50D150
:100AC000FC7BFB7B1846FFF7B7FE02463A4B1B68E0
:100AD0000293019200947B68384A0121384800F063
:100AE000F3FABB68D9B24FF400730093354B4FF45F
:100AF0000072786812F0E0FD0346FB73FB7B002B6D
:100B000018D1BB68DBB21846FFF790FF02462A4BAC
:100B10001B6801937B68009313462B4A01212848E8
:100B200000F0D2FA01227968224811F09DFE0346B6
:100B3000FB7316E0BB68DBB21846FFF777FF05468C
:100B4000FC7BFB7B1846FFF777FE02461A4B1B68BF
:100B50000293019200942B461C4A0121184800F090
:100B6000B3FAFB7B002B09D1134B1B6800937B6806
:100B7000174A0121124800F0A7FA10E0FC7BFB7B2A
:100B80001846FFF759FE02460B4B1B680293019271
:100B900000947B68094A0121094800F095FAFB7B23
:100BA000002B0CBF01230023DBB218461037BD46D3
:100BB000B0BD00BF4819002020000020785B01086C
:100BC000DC610108A41400209C5B0108BC5B0108E7
:100BD000D85B010890B5BDB004AF786007F1A403FD
:100BE0007968184612F02BFA034687F8DF3097F839
:100BF000DF30002B50D14FF0FF33C7F8D830294BEE
:100C00001B6800937B68284A0121002000F05CFAF1
:100C100007F10C0207F1A4031146184612F0A8FAD6
:100C2000034687F8DF30D7F8D8300133C7F8D8301B
:100C300097F8DF30002B03D197F82230002B0DD12D
:100C4000D7F8D830002B1ED1164B1B6800937B6859
:100C5000164A0021002000F037FA14E0FC683B7DC2
:100C60001846FFF779FE01460E4B1B6807F10C0290
:100C7000163202930191009413460D4A0021002080
:100C800000F022FAC4E700BF002387F8DF3007F145
:100C9000A403184612F046FA97F8DF301846E437F6
:100CA000BD4690BD20000020F05B0108045C0108F7
:100CB0001C5C010880B5ADF5147D02AF07F5127319
:100CC000A3F51173186007F51273A3F5117307F1FB
:100CD00008000122196811F00DFE034687F843321F
:100CE00097F84332002B40F087804FF400710120C9
:100CF00013F0C4FF0346C7F83C32D7F83C32002B50
:100D00000CD14A4B1B8843F004039AB2474B1A801C
:100D100007F10803184612F068F982E00023C7F8CB
:100D200044320023C7F8383251E0D7F83C32404A09
:100D30000021002000F0C8F90A21D7F8440214F07D
:100D4000CEF9C7F83802D7F83832002B12D0D7F8CE
:100D5000383200221A700D21D7F8440214F0BFF97E
:100D6000C7F83802D7F83832002B03D0D7F838321A
:100D700000221A702F49D7F83C0214F0D8F9C7F8AE
:100D80004402D7F84432002B0BD0D7F84432053355
:100D9000C7F844327F22D7F84412274814F0B4F938
:100DA00015E02649D7F83C0214F0C1F9C7F844020F
:100DB000D7F84432002B0AD0D7F844320533C7F8AD
:100DC00044327F22D7F844121D4814F09DF907F1F0
:100DD00008031A460321D7F83C0213F0BBF8034678
:100DE000002BA2D1D7F83C0214F026F807F1080333
:100DF000184612F0FAF814E097F843321846FFF755
:100E00001BFD02460F4B1B68019307F51273A3F5F8
:100E100011731B68009313460B4A01210B4800F025
:100E200053F907F51277BD4680BD00BF6405002069
:100E3000405C0108285D010800180020305D0108B1
:100E40008018002020000020385D0108E8610108BA
:100E500080B586B000AFF860B9607A60BB68002BDF
:100E60005CD0BB68B3F5807F58D8BB689B0019463F
:100E7000012013F003FF03463B613B69002B45D083
:100E80004FF0FF337B6120E07B697A68B3FBF2F2BD
:100E9000796801FB02F29B1A002B08D17B69002BB9
:100EA00005DD204B1B681946386914F009F93869CB
:100EB000FFF79EF902463B6998187B69FA6813446C
:100EC0001B781A46184914F0DBF87B6901337B6103
:100ED0007B69BA689A42D7D83869FFF789F903461F
:100EE000013B3A6913441B780A2B05D00D4B1B6854
:100EF0001946386914F0E4F83B690C4A00210020D7
:100F000000F0E2F8386913F097FF08E0084B1B88FF
:100F100043F004039AB2064B1A8000E000BF183772
:100F2000BD4680BD20000020685D0108405C0108CE
:100F30006405002080B483B000AF7860044B1A6869
:100F40007B68134418460C37BD465DF8047B704738
:100F50007C14002080B483B000AF7860064B1B681F
:100F60007A689A4294BF01230023DBB218460C37FB
:100F7000BD465DF8047B70477C14002090B58FB0AF
:100F800004AF786000237B6207F10C03002219464E
:100F90001A4806F03FF90346002B07D0184B1B8870
:100FA00043F008039AB2164B1A8022E007F11003AF
:100FB00000221946114806F04BF80346002B07D0D3
:100FC0000F4B1B8843F008039AB20D4B1A8010E0B8
:100FD000BB7B18467B7B1C463B7C7A7CB97C0291B0
:100FE00001920093234602460649786814F048F8B7
:100FF00078627B6A18462C37BD4690BDB801002048
:1010000064050020705D010880B594B000AF786081
:10101000796800200A460346C7E9082307F12C0235
:1010200007F120031146184613F036FE7B6CDBB245
:101030003B72FB6BDBB20133DBB27B72BB6BDBB2AF
:10104000BB723B6CDBB2FB727B6BDAB21A4B1B7868
:101050001344DBB23B733B6BDBB27B73FB6ADBB2EB
:10106000BB7307F10C0300221946144805F056FF24
:101070000346002B07D0124B1B8843F008039AB29B
:101080000F4B1A8014E007F10803002219460B48A1
:1010900006F03CF80346002B07D0094B1B8843F0B1
:1010A00008039AB2064B1A8002E0064B01221A701E
:1010B00000BF5037BD4680BD1C000020B801002095
:1010C00064050020801400200CB480B588B000AF07
:1010D00078600B46FB704FF40063BB610023FB613B
:1010E000B969012013F0CAFD03467B617B69002BBF
:1010F0006FD0FB78002B03D07869FFF73FFFF861D2
:101100007B68002B0ED07869FFF772F802467B6986
:1011100013447A683249184613F0B2FF0246FB695D
:101120001344FB6107F12C03FB60FB697A69D0185B
:10113000FB69BA69D11AFB68BA6A14F0C7F8786912
:10114000FFF756F803463B61264B00221A70264BE8
:101150001B683A6992B27969184609F077FC034630
:10116000002B06D0214B1B8843F002039AB21F4B81
:101170001A8000BF1B4B1B78DBB2002BFAD07869BA
:10118000FFF736F803461A467B69134418491A4696
:101190000B461B8813803B6901333B613B699BB263
:1011A0001946786913F0F4F80346002B07D00F4B6B
:1011B0001B8843F020039AB20C4B1A8006E00B4BBD
:1011C0001B8823F020039AB2084B1A80786913F029
:1011D00033FE00BF2037BD46BDE8804002B07047F7
:1011E0008C5D01081500002004000020640500202B
:1011F000945D010880B584B000AF786039604FF429
:101200009673FB607B68002B33D03B68002B30D09B
:1012100014E0012002F060FEFB68013BFB60FB680C
:10122000002B0BD1164B1B8843F002039AB2144BD0
:101230001A80144B1B78DBB2002B1CD0114B1B788F
:10124000DBB2002BE5D00F4B00221A700E4B1B684F
:101250003A6892B27968184609F0F8FB0346002B09
:101260000AD0074B1B8843F002039AB2044B1A8042
:1012700002E000BF00E000BF1037BD4680BD00BFE8
:1012800064050020140000201000002080B485B008
:1012900000AF78600023FB730023BB737B681B786F
:1012A0002F2B08D97B681B78392B04D87B681B78D7
:1012B000303BFB7318E07B681B78402B08D97B68B8
:1012C0001B78462B04D87B681B78373BFB730BE0FD
:1012D0007B681B78602B07D97B681B78662B03D84B
:1012E0007B681B78573BFB737B6801331B782F2B84
:1012F0000AD97B6801331B78392B05D87B68013309
:101300001B78303BBB731EE07B6801331B78402B9E
:101310000AD97B6801331B78462B05D87B680133DB
:101320001B78373BBB730EE07B6801331B78602B67
:1013300009D97B6801331B78662B04D87B6801339D
:101340001B78573BBB73FB7B1B015AB297F90E30DE
:1013500003F00F035BB213435BB2DBB218461437E2
:10136000BD465DF8047B7047B0B58EB004AF02F0A7
:1013700041FD00F09DFC00F0ABFE00F05BFE00F0D4
:1013800081FD00F001FD00F02BFE00F0B1FD00F04A
:10139000FDFD12F03FFF00F051FD0CF05FFDB14B81
:1013A0001B680122B049184609F01FFBAF4B1B68B0
:1013B0000122AF49184609F018FBAE4B1B681846CE
:1013C00008F094FEAC4B1B681846FFF71DFEAB48B7
:1013D000FFF74EF903461A46A94B1A700022202146
:1013E000A84803F05DFC4FF4FA7002F075FD00228E
:1013F0004021A44803F054FC4FF47A7002F06CFDD5
:1014000001224FF48061A04803F04AFC4FF47A7047
:1014100002F062FD02F01AF803461A469B4B1A705E
:101420009A4B1B7883F00103DBB2002B0CD0984B56
:101430001B881A46974B1B6800931346964A012156
:101440000020FFF741FE20E002F040FA0346934AF5
:101450001360934B1B681946012013F00FFC0346E1
:101460001A46904B1A608F4B1B68002B06D1884B95
:101470001B8843F004039AB2854B1A8002F04AFAA3
:1014800003469B001A46884B1A6000237B62402368
:1014900087F82330FF23FB744FF47A7002F01CFDB1
:1014A0008248FFF7FDFA03461A46814B1A70804BBB
:1014B0001B78002B37D000237B607E4B3B603A4685
:1014C0003B1D1946794811F090FE7B68714A1268FD
:1014D00001920093754B784A01210020FFF7F4FD3B
:1014E000764B1B681846FFF775FB0346FB74FB7CC5
:1014F000002B05D1724B1B681846FFF7DBFB21E080
:101500006E4B1C68FB7C1846FFF796F90246614B50
:101510001B68029301920094644B6A4A01216A4855
:10152000FFF7D2FD0EE0624B1B781846FFF784F9F7
:101530000246584B1B6800931346644A01216248D7
:10154000FFF7C2FD4FF0FF33FB61B423FB604FF0A8
:10155000FF33BB6100237B61F868FFF7EBFC0346B8
:101560005B4A13605B4B09221A7050E3444B1B78B3
:10157000002B13D0584B00221A7040495648FFF7F1
:10158000E7F80346002B09DB534B1B78002B05D0F3
:10159000514B524A00210020FFF796FD4D4B93F925
:1015A00000300F2B00F2CD8201A252F823F000BFD1
:1015B00087170008431B0008F9160008431B0008A2
:1015C0003B1A0008A31A0008CB1A0008CB1A00081F
:1015D000031B0008211600080B1800089F180008BC
:1015E00091190008EF180008E1190008F11500082A
:1015F0003B4B01221A70274B1B683A4A01210020FD
:10160000FFF762FD2A4B1B78002B07D001222749E8
:10161000002011F029F9264B00221A70FFF712F86A
:1016200002F04EFC0146304B1B685A1C2E480260EB
:10163000174A12881046174A1268019200900A460B
:101640002A492B4813F01CFDFB69002B05D0284BC1
:10165000284A01210020FFF737FD1E4BFF221A7098
:101660006FE200BF04000020711000201000002075
:101670006D0800200000002018000020A81700209E
:10168000FB170020000002400010024088140020D8
:101690006405002020000020985D01088C140020C3
:1016A0003C0000209C1400209014002044190020CD
:1016B000A014002048190020B45D01082C0000206F
:1016C00028000020D85D0108F0610108F85D0108DC
:1016D00084140020240000206C060020105E010805
:1016E00081140020145E010874140020345E010887
:1016F00074100020405C0108934B1B78002B2CD009
:1017000002F0F0F80246914B1B689A4215D1FB6932
:10171000B3F1FF3F2DD10023FB61402387F8233035
:1017200002F0E0F802468A4B1B6800931346894A90
:1017300001210020FFF7C8FC1BE0844B1B6801213E
:10174000184602F0F3F8844B00221A70F868FFF78D
:10175000F1FB0346814A1360F3E1814B1B881A4673
:101760007B4B1B68009313467E4A01210020FFF744
:10177000ABFCF868FFF7DEFB0346784A1360764B54
:10178000FF221A70DDE1704B1B78002B27D0764BBF
:101790001B68002B2FD0744B1868744B1968744B5E
:1017A0001B68002202F020FA704B1C686F4B1B680C
:1017B000184602F037F90246654B1B680193009208
:1017C00023466C4A01210020FFF77EFC664B1B6814
:1017D000674A116820221846FFF73AFB0BE0604B7E
:1017E0001B881A465A4B1B68009313465D4A012119
:1017F0000020FFF769FCF868FFF79CFB0346574A97
:101800001360554BFF221A709BE14F4B1B78002B46
:101810002FD0554B1B68002B37D0574B1C78534BA0
:101820001D6802F077F8034600222946204602F0A0
:101830000FF94E4B1C684D4B1B68184602F0F2F82E
:1018400002464D4B1B781946414B1B680293019190
:1018500000922346494A01210020FFF735FC3E4B08
:1018600000221A70F868FFF765FB03463B4A1360D5
:1018700067E13B4B1B881A46354B1B6800931346A8
:10188000384A01210020FFF71FFCF868FFF752FBE0
:101890000346324A1360304BFF221A7051E1384B35
:1018A0001B78002B19D0374B1B7883F00103DBB278
:1018B000002B06D03448FFF7F3F803461A46314BA5
:1018C0001A70304B1B78002B02D02D48FFF782F99D
:1018D000802200212A4813F0C5FAF868FFF72AFB96
:1018E00003461E4A13601C4BFF221A7029E1244B49
:1018F0001B78002B1ED0234B1B7883F00103DBB237
:10190000002B06D02048FFF7CBF803461A461D4BA4
:101910001A701C4B1B78002B0CD0194811F0C5FD18
:101920001A4B1B681846FFF755F98022002114480E
:1019300013F098FAF868FFF7FDFA0346074A1360B8
:10194000054BFF221A70FCE088140020941400203C
:10195000200000205C5E0108240000208414002088
:1019600064050020985D01089C1400209814002054
:101970003C000020805E010826000020A05E0108D7
:10198000A4160020A0140020441900202C000020E0
:10199000A44B1B78002B19D0A34B1B7883F00103B9
:1019A000DBB2002B06D0A148FFF77AF803461A46AF
:1019B0009D4B1A709C4B1B78002B02D09948FFF767
:1019C00079F980220021974813F04CFAF868FFF764
:1019D000B1FA0346964A1360964BFF221A70B0E0A4
:1019E000904B1B78002B1ED08F4B1B7883F001038C
:1019F000DBB2002B06D08D48FFF752F803461A469B
:101A0000894B1A70884B1B78002B0CD0854811F03D
:101A1000A1FC80220021834813F024FA864B1B6826
:101A20001846FFF7D7F8F868FFF784FA0346804AAC
:101A30001360804BFF221A7083E08048FEF7D8FBCA
:101A40000346BB60BB68002B21D07D4B1B68194649
:101A50007A4813F035FBBB680233BB60B96877483E
:101A6000FFF7C8FB774B93F900301846BB68043B7F
:101A70007549734A12680292019100930346734AB2
:101A800000210020FFF720FB322002F025FAF86841
:101A9000FFF750FA0346664A1360664BFF221A703E
:101AA0004FE06B4B1B78002B05D0694B694A002136
:101AB0000020FFF709FBF868FFF73CFA03465C4A91
:101AC00013605C4BFF221A703BE05A4B93F90030D5
:101AD000072B02D10023BB6101E00123BB61BB697D
:101AE000DBB21A464FF480615B4803F0D9F8F8681E
:101AF000FFF720FA03464E4A13604E4BFF221A703E
:101B00001FE00123BB61BB69DBB21A464021534889
:101B100003F0C6F84A4B1B680093BB69504A012189
:101B20000020FFF7D1FAF868FFF704FA0346404AAD
:101B300013600220FFF7FEF978613E4BFF221A7016
:101B400000BF484B1B78DBB2002B40F08F807B69D5
:101B5000002B19D07869FFF7FDF90346002B13D04D
:101B600000237B610023BB61BB69DBB21A464021C5
:101B70003A4803F095F8324B1B680093BB69384A2A
:101B800001210020FFF7A0FAFB69002B2DD17B6A11
:101B90005A1C7A620021184601F0C8FE97F82330DB
:101BA000013B87F8233097F82330002B02D14023E4
:101BB00087F8233001F096FE02467B6A9A420ED1E6
:101BC00001F090FE02461E4B1B6800931346264A06
:101BD00001210020FFF778FA4FF0FF33FB61F8682E
:101BE000FFF7A8F90346124A1360114B1B68002B3C
:101BF0000DD00F4B1B681846FFF7ACF90346002BBE
:101C000005D0184B00221A70094B00221A60154BA0
:101C10001B78DBB283F00103DBB2002B7FF4A6ACB0
:101C200025E000BFA4160020A014002044190020C5
:101C300084140020240000202C0000206C050020CB
:101C400020000020250000206E050020C85E01084D
:101C50006C060020405C01080010024000000240B9
:101C6000D45E010881140020E85E010800BF0C4B1F
:101C70001B68002B04D00A4B1B68184613F0DCF8D5
:101C8000084B1B68084A01210020FFF71DFA0122BA
:101C90000649002010F0E8FD012002F01DF9FBE7E5
:101CA0009C14002020000020085F01084419002037
:101CB00080B594B000AF07F1200330220021184610
:101CC00013F0D0F807F10C0300221A605A609A60F2
:101CD000DA601A610023BB60294B1B6C284A43F071
:101CE00080531364264B1B6C03F08053BB60BB68AE
:101CF00000237B60234B1B68224A43F4404313605C
:101D0000204B1B6803F440437B607B6805233B62E8
:101D10004FF480337B620123BB620223BB634FF429
:101D20008003FB6319233B644FF490737B640223AD
:101D3000BB640623FB6407F12003184604F060FA35
:101D40000346002B01D000F01BFE0F23FB60022393
:101D50003B6100237B614FF4A053BB614FF4A05360
:101D6000FB6107F10C030421184604F0C1FC034693
:101D7000002B01D000F004FE00BF5037BD4680BDEF
:101D8000003802400070004080B586B000AF3B1DB7
:101D900000221A605A609A60DA601A6100233B6080
:101DA000244B254A1A60234B00225A60214B7F2284
:101DB0009A60204BFF22DA601E4B00221A611D4BF5
:101DC00000225A611B4B00229A611A4805F030F834
:101DD0000346002B01D000F0D3FD00233B7100230C
:101DE0007B710023BB7100233B6100237B613B1DA2
:101DF000012219460F4805F091F80346002B01D047
:101E000000F0BEFD01233B7001237B701423BB70E7
:101E10002423FB703B4601221946064805F076F95B
:101E20000346002B01D000F0ABFD00BF1837BD46C4
:101E300080BD00BFB80100200028004080B400AF82
:101E40000E4B0F4A1A600D4B00225A600B4B0022BA
:101E50009A600A4B0022DA60084B4FF400621A6164
:101E6000064B00225A61054B30229A61034B002237
:101E70001A6100BFBD465DF8047B7047D8010020A1
:101E8000002C014080B500AF174B184A1A60164B62
:101E90004FF482725A60144B00229A60124B002257
:101EA000DA60114B00221A610F4B00225A610E4B6F
:101EB0004FF400729A610C4B0022DA610A4B002247
:101EC0001A62094B00225A62074B00229A62064BA3
:101ED0000A22DA62044806F0D8FE0346002B01D03D
:101EE00000F04EFD00BF80BDBC0200200034014068
:101EF00080B586B000AF07F1080300221A605A606F
:101F00009A60DA603B4600221A605A601E4B4FF01E
:101F100080421A601C4B48F69F425A601A4B0022BE
:101F20009A60194B40F2F312DA60174B4FF480724B
:101F30001A61154B80229A61134808F087F803460E
:101F4000002B01D000F01CFD4FF48053BB6007F163
:101F5000080319460C4808F041FA0346002B01D04B
:101F600000F00EFD00233B6000237B603B461946DA
:101F7000054808F05DFC0346002B01D000F000FD91
:101F800000BF1837BD4680BDD403002080B500AF28
:101F9000114B124A1A60104B4FF4E1325A600E4B4B
:101FA00000229A600C4B0022DA600B4B00221A616F
:101FB000094B0C225A61084B00229A61064B002201
:101FC000DA61054808F0C4FC0346002B01D000F09C
:101FD000D7FC00BF80BD00BF1C04002000440040AF
:101FE00080B500AF114B124A1A60104B4FF4E1322A
:101FF0005A600E4B00229A600C4B0022DA600B4BA9
:1020000000221A61094B0C225A61084B00229A6186
:10201000064B0022DA61054808F09AFC0346002BC3
:1020200001D000F0ADFC00BF80BD00BF6004002007
:102030000048004080B582B000AF00237B60234B96
:102040001B6B224A43F480031363204B1B6B03F486
:1020500080037B607B6800233B601C4B1B6B1B4A2F
:1020600043F400131363194B1B6B03F400133B6021
:102070003B68002200210E2002F02DF80E2002F015
:1020800046F800220021112002F025F8112002F06C
:102090003EF800220021382002F01DF8382002F01E
:1020A00036F800220021392002F015F8392002F01C
:1020B0002EF8002200213B2002F00DF83B2002F018
:1020C00026F800BF0837BD4680BD00BF003802407B
:1020D00080B58CB000AF07F11C0300221A605A6073
:1020E0009A60DA601A610023BB61644B1B6B634A20
:1020F00043F010031363614B1B6B03F01003BB61D0
:10210000BB6900237B615D4B1B6B5C4A43F004039E
:1021100013635A4B1B6B03F004037B617B69002341
:102120003B61564B1B6B554A43F080031363534B83
:102130001B6B03F080033B613B690023FB604F4B4B
:102140001B6B4E4A43F0010313634C4B1B6B03F0B4
:102150000103FB60FB680023BB60484B1B6B474AD5
:1021600043F008031363454B1B6B03F00803BB608C
:10217000BB6800237B60414B1B6B404A43F002036A
:1021800013633E4B1B6B03F002037B607B680122F1
:1021900009213B4802F084FD00222021394802F049
:1021A0007FFD01224021374802F07AFD002242F2F1
:1021B0000241334802F074FD01224FF400713248AD
:1021C00002F06EFD0823FB6101233B6201237B6269
:1021D0000023BB6207F11C031946294802F0B4FB37
:1021E0002023FB6101233B6200237B620023BB624F
:1021F00007F11C031946234802F0A6FB4023FB61AC
:1022000001233B6201237B620023BB6207F11C03B5
:1022100019461C4802F098FB4FF48063FB611123C0
:102220003B6201237B620023BB6207F11C0319465A
:10223000134802F089FB42F20303FB6101233B6276
:1022400001237B620123BB6207F11C0319460C4882
:1022500002F07AFB4FF40073FB6101233B62012320
:102260007B620223BB6207F11C031946064802F099
:102270006BFB00BF3037BD4680BD00BF0038024059
:1022800000100240000002400004024080B582B00D
:1022900000AF78607B681B68B3F1804F18D10E4B9C
:1022A0001B6801330C4A13600B4B1B6803F00303DC
:1022B000032B09D1094B1B680133084A13604FF403
:1022C0000051074802F005FD0649074812F097F84B
:1022D00000BF0837BD4680BD781400207C14002064
:1022E00000100240241700202817002080B483B07B
:1022F00000AF78607B681B680A4A934203D10A4B9F
:1023000001221A7007E07B681B68084A934202D1D9
:10231000074B01221A7000BF0C37BD465DF8047BE5
:10232000704700BF004800401500002000440040F6
:102330001400002080B58CB000AF78607B681B680B
:102340009D4A934240F086809C4B1B78DBB20D2B5C
:102350001AD99A4B1B78DBB25BB2002B14DB974B7C
:102360001B78DBB21F2B02D9954B01221A70944BBC
:102370001B78002B08D0934B1B78DBB21A468F4B8F
:102380001B78D9B2904B99548D4B1B78002B5BD0A6
:102390008A4B1B78DBB20A2B04D0884B1B78DBB24C
:1023A0003E2B4AD18848FDF723FF03463B61874B0C
:1023B0001B78002B37D03B6901331946012012F0FE
:1023C0005DFC0346FB60FB68002B25D03B691A4689
:1023D0007D49F86812F038FD7D49F868FEF77CF910
:1023E0000346002B0ADA7B4B1B8843F040039AB26A
:1023F000784B1A80F86812F01FFD14E0754B1B88AB
:1024000003F04003002B0ED0724B1B8823F04003D7
:102410009AB2704B1A8006E06E4B1B8843F004039F
:102420009AB26C4B1A80674B00221A704FF480727C
:102430000021654812F016FD06E0624B1B78DBB206
:102440000133DAB25F4B1A7001225C49786808F0F8
:10245000CCFA19E27B681B685F4A934240F0148211
:102460005E4B1B78DBB21A465D4B1B78D9B25D4BD5
:1024700099545B4B1B78DBB20A2B40F0F981574B28
:102480001B78DBB2012B40F2F3810023FB62564B39
:10249000FF221A700D21534812F021FEF862FB6AE8
:1024A000002B03D0FB6A00221A700AE00A214D4873
:1024B00012F015FEF862FB6A002B02D0FB6A0022C4
:1024C0001A704A49474812F032FEF862FB6A002B44
:1024D00013D0FB6A0633184612F0CCFB03467B612F
:1024E000434B1B687A699A4240F2B8817869FEF7DB
:1024F0008BFD404B09221A70B0E13F49394812F078
:1025000016FEF862FB6A002B09D000224FF48061AE
:102510003A4802F0C5FB3A4B01221A709EE1394954
:10252000304812F004FEF862FB6A002B0DD0344BE9
:102530001B78DBB283F00103DBB2002B03D02D4B01
:102540000F221A708AE1FEF77DF82F49254812F014
:10255000EEFDF862FB6A002B03D0264B09221A70AD
:102560007CE12A491F4812F0E2FDF862FB6A002B69
:1025700008D127491B4812F0DAFDF862FB6A002BEC
:1025800000F08980FB6A0233FB622249F86A12F08C
:10259000CEFD0346002B43D0FA6A1F491F4812F0B4
:1025A0006FFD1E4800F0F2F903461A460E4B1A70F2
:1025B000104B04221A7051E1004400406D080020C5
:1025C000FC1700206C0800206C070020FB1700207F
:1025D000A81700206405002000480040701000206B
:1025E000711000207008002025000020245F0108E1
:1025F00018000020240000202C5F01080010024079
:1026000081140020345F01083C5F0108405F01082D
:10261000445F0108485F01084C5F01086C05002019
:102620009B49F86A12F083FD0346002B03D0994BB7
:1026300006221A7012E19849F86A12F078FD0346F2
:10264000002B03D0934B07221A7007E19349F86AD5
:1026500012F06DFD0346002B03D08E4B08221A703A
:10266000FCE05A21F86A12F03AFD0346002B08D02C
:102670001A228B498B4812F003FD864B04221A70F4
:10268000ECE01A23FA6A8849864812F0F9FC814B7B
:1026900004221A70E2E08549854812F048FDF8628C
:1026A000FB6A002B0AD0FB6A0433FB62F96A81489B
:1026B00012F022FD774B0C221A70CFE07E497C4845
:1026C00012F035FDF862FB6A002B0AD0FB6A063374
:1026D000FB62F96A774812F00FFD6E4B0D221A70FB
:1026E000BCE07649724812F022FDF862FB6A002BCA
:1026F0000AD0FB6A0433FB62F96A6E4812F0FCFCF4
:10270000644B0B221A70A9E06D49694812F00FFD65
:10271000F862FB6A002B0AD0FB6A0333FB62F96A9A
:10272000644812F0E9FC5B4B0E221A7096E0654992
:102730005F4812F0FCFCF862FB6A002B26D0554B78
:1027400093F90030B3F1FF3F40F08880FB6A063315
:102750005D49184612F0EBFC0346002B03D05B4B9F
:102760009B69BB6206E0FB6A0633184612F082FAE8
:102770000346BB62554B9B69BA6A9A426ED8544A6B
:10278000BB6A1360434B02221A7067E05149484804
:1027900012F0CDFCF862FB6A002B18D03D4B93F988
:1027A0000030B3F1FF3F59D1FB6A0533184612F0F0
:1027B00061FA0346BB61454B1B69BA699A424DD227
:1027C000454ABB691360334B00221A7046E0434907
:1027D000374812F0ACFCF862FB6A002B3ED0FB6A73
:1027E0000533FB623A21F86A12F079FC78627B6A61
:1027F000002B33D07B6A3B627B6A01337B623849B2
:10280000786A12F094FC0346002B0AD07B6A0233EC
:102810007B62786AFEF73AFD03461A46314B1A701E
:1028200008E07B6A0133184612F024FA0346DAB254
:102830002C4B1A703B6A00221A70F86A12F01AFACE
:102840000346FB6101F05AF80246FB69934205D248
:10285000214AFB6913600F4B0A221A70224B002297
:102860001A704FF400620021114812F0FBFA06E0E2
:102870001D4B1B78DBB20133DAB21B4B1A700122FD
:102880001A49786808F0B1F800BF3037BD4680BDFE
:10289000545F0108240000205C5F0108645F0108A8
:1028A000685F01086C050020705F0108785F01080F
:1028B00070080020A4160020805F0108885F0108CE
:1028C000905F0108945F01089C5F010804190020D3
:1028D00094140020A05F010898140020A85F01084C
:1028E000B05F010826000020701000207110002049
:1028F00080B582B000AF78607B681B680A4A93425B
:102900000DD10A4B1B680133084A1360084B0122A2
:102910001A70084B1B78002B01D000F017FC00BF89
:102920000837BD4680BD00BF003401406805002067
:102930000C0000203819002080B582B000AF78600C
:102940007B681B680A4A93420DD10A4B1B6801330E
:10295000084A1360084B01221A70084B1B78002BA1
:1029600001D000F0F3FB00BF0837BD4680BD00BFBB
:1029700000340140680500200C00002038190020B8
:1029800080B400AF72B600BFFEE7000080B584B02F
:1029900000AF78601623FB7311E097F90F20134600
:1029A000DB001344DB000D4A13441946786812F02B
:1029B000BEFB0346002B02D097F90F3009E0FB7BEA
:1029C000013BDBB2FB7397F90F30002BE5DA97F987
:1029D0000F3018461037BD4680BD00BFF8610108B2
:1029E00080B483B000AF00237B60104B5B6C0F4A58
:1029F00043F4804353640D4B5B6C03F480437B6072
:102A00007B6800233B60094B1B6C084A43F08053F2
:102A10001364064B1B6C03F080533B603B6800BFA4
:102A20000C37BD465DF8047B704700BF003802409C
:102A300080B58EB000AF786007F108033022002126
:102A4000184612F00FFA7B681B680C4A934211D1AA
:102A50002023BB604FF480733B6307F108031846E3
:102A600004F026F80346002B01D0FFF789FF044B42
:102A700001221A6000BF3837BD4680BD00280040E3
:102A80003C0E474280B58AB000AF786007F114036E
:102A900000221A605A609A60DA601A617B681B68CB
:102AA0004D4A934240F0948000233B614B4B5B6C5A
:102AB0004A4A43F400635364484B5B6C03F400637D
:102AC0003B613B690023FB60444B1B6B434A43F073
:102AD00004031363414B1B6B03F00403FB60FB68AF
:102AE0000023BB603D4B1B6B3C4A43F00803136360
:102AF0003A4B1B6B03F00803BB60BB684FF4F85301
:102B00007B610223BB610023FB6103233B620C2337
:102B10007B6207F114031946314801F015FF0423C5
:102B20007B610223BB610023FB6103233B620C2317
:102B30007B6207F1140319462A4801F005FF2A4B6E
:102B40002A4A1A60284B4FF000625A60264B002236
:102B50009A60254B0022DA60234B4FF480621A61A1
:102B6000214B4FF480525A611F4B4FF480429A61BF
:102B70001D4B2022DA611C4B00221A621A4B0422E0
:102B80005A62194B03229A62174B4FF40002DA6221
:102B9000154B4FF400121A63134801F0D3FA0346A1
:102BA000002B01D0FFF7ECFE7B680F4A1A640E4A37
:102BB0007B6893637B680C4ADA630B4A7B68936398
:102BC00000220021312001F086FA312001F09FFA25
:102BD00000BF2837BD4680BD002C014000380240B0
:102BE00000080240000C02405C02002058640240D1
:102BF00080B58AB000AF786007F1140300221A6034
:102C00005A609A60DA601A617B681B684C4A93428A
:102C100040F0928000233B614A4B5B6C494A43F48D
:102C200000535364474B5B6C03F400533B613B69B7
:102C30000023FB60434B1B6B424A43F010031363BA
:102C4000404B1B6B03F01003FB60FB6864237B614C
:102C50000223BB610023FB6103233B6205237B62EC
:102C600007F114031946384801F06EFE374B384A15
:102C70001A60364B4FF000625A60344B40229A6023
:102C8000324B0022DA60314B4FF480621A612F4BD5
:102C900000225A612D4B00229A612C4B0022DA61EE
:102CA0002A4B4FF480321A62284B00225A6227487E
:102CB00001F048FA0346002B01D0FFF761FE7B6864
:102CC000224A9A64214A7B689363224B224A1A6003
:102CD000204B4FF000625A601E4B00229A601D4B41
:102CE0000022DA601B4B4FF480621A61194B0022FC
:102CF0005A61184B00229A61164B0022DA61154B7B
:102D00004FF480321A62134B00225A62114801F0CC
:102D100019FA0346002B01D0FFF732FE7B680D4AFB
:102D2000DA640C4A7B68936300220021542001F08E
:102D3000D2F9542001F0EBF900BF2837BD4680BD21
:102D4000003401400038024000100240140300200B
:102D500028640240740300201064024080B584B0EF
:102D600000AF78607B681B68B3F1804F15D10023FA
:102D7000FB600C4B1B6C0B4A43F001031364094BC3
:102D80001B6C03F00103FB60FB68002200211C2088
:102D900001F0A1F91C2001F0BAF900BF1037BD46BF
:102DA00080BD00BF0038024080B58CB000AF7860B5
:102DB00007F11C0300221A605A609A60DA601A61F7
:102DC0007B681B68694A934263D10023BB61684BEF
:102DD0001B6C674A43F400331364654B1B6C03F4AC
:102DE0000033BB61BB6900237B61614B1B6B604A95
:102DF00043F0080313635E4B1B6B03F008037B6116
:102E00007B697823FB6102233B6200237B620323FF
:102E1000BB620723FB6207F11C031946554801F00A
:102E200093FD554B554A1A60534B4FF000625A6060
:102E3000514B40229A60504B0022DA604E4B4FF4C7
:102E400080621A614C4B00225A614B4B00229A61FE
:102E5000494B0022DA61484B4FF480321A62464BEC
:102E600000225A62444801F06DF90346002B01D05C
:102E7000FFF786FD7B68404A5A633F4A7B6893634D
:102E800000220021262001F026F9262001F03FF93A
:102E900068E07B681B683A4A934263D100233B6138
:102EA000334B1B6C324A43F480231364304B1B6C4E
:102EB00003F480233B613B690023FB602C4B1B6BBD
:102EC0002B4A43F008031363294B1B6B03F00803E1
:102ED000FB60FB684FF44073FB6102233B620023FD
:102EE0007B620323BB620723FB6207F11C031946C5
:102EF000204801F029FD234B234A1A60214B4FF053
:102F000000625A601F4B40229A601E4B0022DA601A
:102F10001C4B4FF480621A611A4B00225A61194B04
:102F200000229A61174B0022DA61164B4FF40032EF
:102F30001A62144B00225A62124801F003F9034648
:102F4000002B01D0FFF71CFD7B680E4A5A630D4A27
:102F50007B68936300220021272001F0BCF8272022
:102F600001F0D5F800BF3037BD4680BD00440040B9
:102F700000380240000C0240A4040020A06002407F
:102F800000480040040500205860024080B400AFB3
:102F9000FEE780B400AFFEE780B400AFFEE780B488
:102FA00000AFFEE780B400AFFEE780B400AF00BF23
:102FB000BD465DF8047B704780B400AF00BFBD46DE
:102FC0005DF8047B704780B400AF00BFBD465DF87C
:102FD000047B704780B500AF00F05EFF00BF80BD8E
:102FE00080B500AF024801F045FA00BF80BD00BFC8
:102FF0000405002080B500AF024801F03BFA00BF95
:1030000080BD00BFA404002080B500AF024807F0D7
:10301000DDF800BF80BD00BFD403002080B500AF45
:10302000024807F091FD00BF80BD00BF1C040020D6
:1030300080B500AF024807F087FD00BF80BD00BF2C
:103040006004002080B500AF024804F003FE00BF1A
:1030500080BD00BFD801002080B500AF024801F05C
:1030600009FA00BF80BD00BF7403002080B500AF27
:10307000024801F0FFF900BF80BD00BF140300202B
:1030800080B500AF024801F0F5F900BF80BD00BF78
:103090005C02002080B500AF024801F084FF00BF51
:1030A00080BD00BF9429002080B500AF024806F023
:1030B0001DFC00BF80BD00BFBC02002080B586B0F3
:1030C00000AF7860144A154BD31A7B617B693B6172
:1030D000134B1B68002B02D1114B124A1A60104B84
:1030E0001A687B6813443A699A4207D211F0CEFD00
:1030F00003460C221A604FF0FF3309E0084B1B68AF
:10310000FB60074B1A687B681344054A1360FB6831
:1031100018461837BD4680BD000003200018000087
:1031200000190020D030002080B400AF064BD3F847
:103130008830054A43F47003C2F8883000BFBD46AA
:103140005DF8047B704700BF00ED00E080B500AF84
:1031500001224FF40071024801F0A2FD00BF80BDC2
:103160000004024080B500AF01220221034801F0B3
:1031700097FD034B00221A7000BF80BD0010024073
:103180003A19002080B483B000AF78607B68013BBF
:103190000D2B3BD801A252F823F000BFD531000817
:1031A000D9310008DD310008E1310008E5310008BF
:1031B000E9310008ED310008F1310008F53100086F
:1031C000F9310008FD31000801320008053200081D
:1031D00009320008114B1AE0114B18E0114B16E0B0
:1031E000114B14E0114B12E0114B10E0114B0EE0AB
:1031F000114B0CE0114B0AE0114B08E0114B06E0BB
:10320000114B04E0114B02E0114B00E0114B18464A
:103210000C37BD465DF8047B704700BFB45F010802
:10322000BC5F0108C45F0108CC5F0108D45F0108DE
:10323000DC5F0108E45F0108EC5F0108F45F01084E
:10324000FC5F010804600108106001081C600108AF
:10325000286001083460010880B586B002AF0346DB
:10326000FB71084B1868084B1B6807F10F02F91D2A
:103270000093012305F0DFFFFB7B18461037BD46A6
:1032800080BD00BF080000203400002080B500AFE2
:10329000012000F021FE012208210D4801F000FD6F
:1032A000012000F019FE00220821094801F0F8FC75
:1032B000022000F011FE01220821054801F0F0FC77
:1032C000022000F009FE642000F006FE00BF80BD71
:1032D0000010024080B584B000AF3B1D00221A6090
:1032E0005A609A6000224FF40071164801F0D8FC31
:1032F0009F20FFF7B1FF144B1B781846FFF7ACFF78
:1033000003467B60104B1B781846FFF7A5FF03466A
:10331000BB600D4B1B781846FFF79EFF0346FB6012
:1033200001224FF40071074801F0BAFC7B681A04CF
:10333000BB681B021A43FB68134318461037BD468F
:1033400080BD00BF000402403919002080B582B062
:1033500000AFAB233B71144B1B787B71124B1B7876
:10336000BB7100224FF40071104801F099FC104B22
:103370001868104B1B68391D032205F00FFD0C4B1C
:1033800018680C4B1B683946022205F043FE7A7818
:10339000094B5A7301224FF40071044801F080FC7C
:1033A00000BF0837BD4680BD391900200004024027
:1033B00008000020340000200419002080B500AF70
:1033C00000224FF40071084801F06AFC0620FFF764
:1033D00043FF01224FF40071034801F061FC01201A
:1033E00000F07AFD00BF80BD0004024080B500AF50
:1033F000012000F071FD00224FF40071104801F02F
:103400004FFC0520FFF728FF0E4B1B781846FFF7EF
:1034100023FF03461A460C4B83F82820012000F0B6
:103420005BFD094B93F8283003F00103002BEBD12F
:1034300001224FF40071024801F032FC00BF80BD50
:10344000000402403919002004190020F0B59BB097
:103450000EAFFFF787FE01220121914801F020FC09
:10346000FFF714FF8F4B012283F82B20002387F8EE
:103470002F3001224FF400718B4801F011FCFFF74F
:1034800029FFB862874ABB6AC2F80930874B1B68BC
:103490000093BB6A864A01210020FDF715FEBB6A36
:1034A0001B0C87F82730BB6A9BB2BB6297F82730AA
:1034B000EF2B18D1BB6A1B0A402B11D1BB6ADBB2C0
:1034C000BB62BB6A102B55D9BB6A202B52D8BB6A92
:1034D000103BBB62BB6A0A2B4CD90023BB6249E09C
:1034E0000023BB6246E097F82730C22B16D1714B00
:1034F00000221A70BB6A1B0A202B0CD1BB6ADBB2FC
:10350000BB62BB6A142B03D1BB6A093BBB6231E0CF
:103510000023BB622EE00023BB622BE097F827302C
:10352000012B25D1634B00221A70BB6A1B0A202B8A
:103530000BD1BB6ADBB2BB62BB6A182B02D10C2376
:10354000BB6217E00023BB6214E0BB6A1B0A022BBC
:103550000BD1BB6ADBB2BB62BB6A202B02D10E234C
:10356000BB6207E00023BB6204E00023BB6201E012
:103570000023BB62BB6A0E2B00F28781BB6A002B63
:1035800000F08381BB6ADAB2464B1A704A4ABB6AC2
:1035900052F82330434A1362BB6A0B2B01D9FFF761
:1035A000D5FE4FF40061012011F068FB03463B6239
:1035B0003B6A002B00F03881B86AFFF7E3FD034651
:1035C000BA6A3E49386A11F05BFDBB6A0B2B14D90D
:1035D000386AFCF70DFE02463B6A9818314B5B7B5C
:1035E000162B05D92F4B5B7B192B01D8532300E0F9
:1035F0003F231A46324911F043FDBB6A002B00F00D
:10360000E580284B4FF48072DA81264B4FF48052CC
:103610005A61244B1B780E2B06D00E2B6EDC0C2B24
:1036200021D00D2B4ED069E01E4B4FF40072DA8191
:103630001C4B4FF480325A621A4B5B6A9A02194B48
:103640005B69B2FBF3F3174A9361164B5B6A9B020B
:10365000144AD289B3FBF2F3124A1361114B4FF4AF
:103660008022DA6169E00F4B4FF480425A620D4BC1
:103670005A6A0C4B5B699B0AB2FBF3F3094A9361EC
:10368000084B5B6A9B02074AD289B3FBF2F3054AF7
:103690001361044B5B691B01024AD3614DE000BF1B
:1036A0000010024004190020000402402000002005
:1036B0003860010839190020406801084860010895
:1036C00058600108774B4FF400425A62754B5A6AB2
:1036D000744B5B699B0AB2FBF3F3724A9361714BC3
:1036E0005B6A9B026F4AD289B3FBF2F36D4A1361A6
:1036F0006C4B5B691B016B4AD3611EE0694B1B6A13
:103700001B01684A9361674B9B69664A526902FBD9
:1037100003F3644AD289B3FBF2F3624A1361614B4B
:103720009B69604A526902FB03F39B0A5D4A53623C
:103730005C4B5B691B015B4AD361386AFCF758FD3F
:1037400002463B6A03EB020C574B1B68FB61554B6F
:10375000DB899E46544B1868524B1C69524B1D68BE
:10376000504B5E69504B1968B9614E4B9B697B6148
:103770004D4B1A683A614B4BD969F9604A4B1B684B
:10378000BB60484B1A6A7A60474B1968454B5A6AC6
:10379000454B1B680C930B920A917A680992BB689F
:1037A0000893F96807913A6906927B690593B969AC
:1037B000049103960295019400907346FA693B497F
:1037C000604611F05DFC012387F82F30BB6A0B2B9C
:1037D00021D9386AFCF70CFD02463B6A9C18314B34
:1037E0005B7B1D46B86AFFF7CDFC01462D4B5B7B2A
:1037F000162B05D92B4B5B7B192B01D8532300E0EB
:103800003F23294A1268019200930B462A46284911
:10381000204611F035FC3B6A264A01210020FDF7C5
:1038200053FC386A11F008FB1E4B5B6AB3F5004F7E
:1038300004D3214B1B6801331F4A1360194BDB89EA
:103840001A461E4B1A60174BDB891A461A4B1B6827
:10385000134402331A4A1360194B1B68194601209E
:1038600011F00CFA03461A46164B1A60154B1B68EA
:10387000002B0CD1144B1B8843F004039AB2124B5B
:103880001A80002387F82F3002E000BF00E000BF5D
:10389000044B002283F82B2097F82F30184634373A
:1038A000BD46F0BD04190020200000205C60010826
:1038B000F860010810610108380000203C00002079
:1038C00034190020301900206405002080B400AFB6
:1038D000034B1B781846BD465DF8047B704700BF5C
:1038E0000419002080B400AF034B9B691846BD4605
:1038F0005DF8047B704700BF0419002080B400AF5E
:10390000034B1B691846BD465DF8047B704700BF3A
:103910000419002080B400AF034BDB891846BD4674
:103920005DF8047B704700BF0419002080B586B0A5
:1039300002AF78600B46FB7002E0012000F0CCFA89
:10394000314B93F82B30002BF7D12F4B012283F80A
:103950002B20FB78002B08D000F0B2FAF8607B68CF
:103960002A4A01212A48FDF7AFFBFFF73FFD264B0E
:103970005A697B6802FB03F37B60FFF71FFD00229F
:103980004FF40071234801F08BF92020FFF764FC0D
:103990007B681B0CDBB21846FFF75EFC7B681B0ADA
:1039A000DBB21846FFF758FC7B68DBB21846FFF71E
:1039B00053FC01224FF40071164801F071F9FFF732
:1039C00015FDFB78002B14D000F07AFA0246FB6854
:1039D000D31ABB60BB68104AA2FB03239B090F4AA2
:1039E000126801920093BB680D4A00210020FDF788
:1039F0006BFB012000F070FA034B002283F82B20B0
:103A000000BF1037BD4680BD041900204061010889
:103A10007C68010800040240D34D621020000020A1
:103A20002061010880B483B000AF7860074BDB8968
:103A30001A467B6803FB02F2044B5B69B2FBF3F3AB
:103A400018460C37BD465DF8047B7047041900200A
:103A500080B586B000AFB9607A603B600346FB7307
:103A6000584B1B68002B00F0A980574B1B68002B9C
:103A700000F0A48002E0012000F02EFA534B93F8EE
:103A80002B30002BF7D1514B012283F82B203A68C1
:103A90007B6813444D4AD289934202D83B68002B7D
:103AA00005D14A4BDB891A467B68D31A3B607A689A
:103AB0003B681344454AD289934205D9434BDB897D
:103AC0001A467B68D31A3B60FFF778FC3F4BDB89D3
:103AD0001A46BB6802FB03F37A681344BB603B6879
:103AE0009AB23B4B1B689BB21344FB8200233B61A1
:103AF000344B1A683B69591C3961134402221A700D
:103B0000BB68180C2F4B1A683B69591C3961134468
:103B1000C2B21A70BB68180A2A4B1A683B69591C52
:103B200039611344C2B21A70264B1A683B69591C9A
:103B300039611344BA68D2B21A70224B1A68244B06
:103B40001B681344F97B3A68184611F08BF9214B36
:103B500000221A7000224FF400711F4801F0A0F8F3
:103B60001E4B1B78002B10D01D4B1B68154A11688B
:103B7000FA8A184605F002FD02E0012000F0ACF9D7
:103B8000144B1B78002BF8D013E0154B18680D4B25
:103B90001968144B1B68FA8A05F000F901224FF4EA
:103BA00000710D4801F07CF8FFF720FC094B012261
:103BB0001A70064B002283F82B2000E000BF183754
:103BC000BD4680BD301900203419002004190020A2
:103BD000380000200C0000200004024038190020AA
:103BE000080000203400002090B589B002AFF860D2
:103BF000B9607A603B60604B1B68002B00F0B880B6
:103C00005E4B1B68002B00F0B38002E0012000F047
:103C100063F95B4B93F82B30002BF7D1584B012203
:103C200083F82B20564BDB891A463B68934202D817
:103C30003B68002B02D1524BDB893B607A683B68C2
:103C400013444F4AD289934205D94D4BDB891A461A
:103C50007B68D31A3B604A4BDB891A46BB6802FB80
:103C600003F37A681344BB60434B1B68434A1268F2
:103C70000021184611F0F6F83B689AB2414B1B68D8
:103C80009BB21344FB8200233B613B4B1A683B69A8
:103C9000591C3961134403221A70BB68180C364B47
:103CA0001A683B69591C39611344C2B21A70BB6867
:103CB000180A314B1A683B69591C39611344C2B266
:103CC0001A702D4B1A683B69591C39611344BA6844
:103CD000D2B21A702C4B00221A7000224FF40071DD
:103CE0002A4800F0DDFF2A4B1B78002B11D0294B0E
:103CF0001868214B1968204B1A68FB8A05F0F4FC00
:103D000002E0012000F0E8F81F4B1B78002BF8D0F0
:103D10001FE0204B1868184B1968174B1A681E4B88
:103D20001B68FC8A0093234605F085FA0346002BA6
:103D300006D01A4B1B8843F010039AB2174B1A8017
:103D400001224FF40071114800F0AAFF0E4B01222E
:103D50001A70094B1A680B4B1B6813443A681946D2
:103D6000F86811F071F8064B002283F82B2000E070
:103D700000BF1C37BD4690BD30190020341900200B
:103D800004190020380000200C000020000402402C
:103D900038190020080000203400002064050020AD
:103DA000DFF834D00D480E490E4A002302E0D45803
:103DB000C4500433C4188C42F9D30B4A0B4C002373
:103DC00001E013600432A242FBD3FFF7ADF911F01A
:103DD0000FF8FDF7C9FA704700000320000000202B
:103DE0009C010020506E01089C010020D030002072
:103DF000FEE7000080B500AF0E4B1B680D4A43F490
:103E0000007313600B4B1B680A4A43F48063136012
:103E1000084B1B68074A43F480731360032000F0CB
:103E20004FF90F2000F008F8FEF7DAFD00231846DE
:103E300080BD00BF003C024080B582B000AF78601A
:103E4000124B1A68124B1B7819464FF47A73B3FB66
:103E5000F1F3B2FBF3F3184600F067F90346002BC9
:103E600001D001230EE07B680F2B0AD8002279686D
:103E70004FF0FF3000F02FF9064A7B6813600023F3
:103E800000E0012318460837BD4680BD3000002001
:103E9000440000204000002080B400AF064B1B7897
:103EA0001A46064B1B681344044A136000BFBD4604
:103EB0005DF8047B704700BF440000203C190020DF
:103EC00080B400AF034B1B681846BD465DF8047B09
:103ED000704700BF3C19002080B584B000AF786007
:103EE000FFF7EEFFB8607B68FB60FB68B3F1FF3F54
:103EF00005D00A4B1B781A46FB681344FB6000BFD1
:103F0000FFF7DEFF0246BB68D31AFA689A42F7D879
:103F100000BF00BF1037BD4680BD00BF4400002079
:103F200080B485B000AF78607B6803F00703FB6066
:103F30000C4BDB68BB60BA684FF6FF031340BB60F5
:103F4000FB681A02BB68134343F0BF6343F40033BA
:103F5000BB60044ABB68D36000BF1437BD465DF840
:103F6000047B704700ED00E080B400AF044BDB68D9
:103F70001B0A03F007031846BD465DF8047B704733
:103F800000ED00E080B483B000AF0346FB7197F909
:103F90000730002B0BDBFB7903F01F02074997F971
:103FA00007305B09012000FA02F241F8232000BF2C
:103FB0000C37BD465DF8047B704700BF00E100E0B0
:103FC00080B483B000AF03463960FB7197F90730C6
:103FD000002B0ADB3B68DAB20C4997F90730120173
:103FE000D2B20B4483F800230AE03B68DAB20849F6
:103FF000FB7903F00F03043B1201D2B20B441A7693
:1040000000BF0C37BD465DF8047B704700E100E05F
:1040100000ED00E080B489B000AFF860B9607A606C
:10402000FB6803F00703FB61FB69C3F10703042B83
:1040300028BF0423BB61FB690433062B02D9FB694B
:10404000033B00E000237B614FF0FF32BB6902FAC3
:1040500003F3DA43BB681A407B699A404FF0FF31A3
:104060007B6901FA03F3D9437B680B40134318467D
:104070002437BD465DF8047B7047000080B582B0F0
:1040800000AF78607B68013BB3F1807F01D30123EF
:104090000FE00A4A7B68013B53600F214FF0FF306D
:1040A000FFF78EFF054B00229A60044B07221A602F
:1040B000002318460837BD4680BD00BF10E000E071
:1040C00080B582B000AF78607868FFF729FF00BF45
:1040D0000837BD4680BD80B586B000AF0346B960E5
:1040E0007A60FB7300237B61FFF73EFF78617A689B
:1040F000B9687869FFF78EFF024697F90F301146CD
:104100001846FFF75DFF00BF1837BD4680BD80B57C
:1041100082B000AF0346FB7197F907301846FFF7EE
:1041200031FF00BF0837BD4680BD80B582B000AF0B
:1041300078607868FFF7A2FF034618460837BD4647
:1041400080BD000080B586B000AF786000237B6141
:10415000FFF7B6FE38617B68002B01D1012399E09F
:104160007B68022283F835207B68002283F83420A4
:104170007B681B681A687B681B6822F001021A6062
:104180000FE0FFF79DFE02463B69D31A052B08D9C5
:104190007B6820225A657B68032283F8352003233D
:1041A00078E07B681B681B6803F00103002BE8D1F3
:1041B0007B681B681B687B617A69384B13407B61A5
:1041C0007B685A687B689B681A437B68DB681A4384
:1041D0007B681B691A437B685B691A437B689B6930
:1041E0001A437B68DB691A437B681B6A13437A694D
:1041F00013437B617B685B6A042B07D17B68DA6AB7
:104200007B681B6B13437A6913437B617B681B6874
:104210007A691A607B681B685B697B617B6923F044
:1042200007037B617B685B6A7A6913437B617B6808
:104230005B6A042B17D17B689B6A7A6913437B61A5
:104240007B68DB6A002B0ED0786800F001FB034628
:10425000002B08D07B6840225A657B68012283F8D6
:104260003520012316E07B681B687A695A617868FB
:1042700000F0B8FA0346FB607B68DB6D3F229A4092
:10428000FB689A607B6800225A657B68012283F88C
:104290003520002318461837BD4680BD3F8010F0FA
:1042A00080B586B000AFF860B9607A603B600023EB
:1042B000FB75FB689B6D3B61FB6893F83430012B09
:1042C00001D1022340E0FB68012283F83420FB681F
:1042D00093F83530DBB2012B2FD1FB68022283F833
:1042E0003520FB6800225A653B687A68B968F8682F
:1042F00000F04AFAFB68DB6D3F229A403B699A6006
:10430000FB681B681A68FB681B6842F016021A609B
:10431000FB681B6C002B07D0FB681B681A68FB68E6
:104320001B6842F008021A60FB681B681A68FB6889
:104330001B6842F001021A6005E0FB68002283F866
:1043400034200223FB75FB7D18461837BD4680BD1F
:1043500080B584B000AF78607B689B6DFB60FFF731
:10436000AFFDB8607B6893F83530DBB2022B08D024
:104370007B6880225A657B68002283F83420012301
:1043800052E07B681B681A687B681B6822F0160283
:104390001A607B681B685A697B681B6822F0800280
:1043A0005A617B681B6C002B03D17B689B6C002BD4
:1043B00007D07B681B681A687B681B6822F00802BC
:1043C0001A607B681B681A687B681B6822F0010210
:1043D0001A6013E0FFF774FD0246BB68D31A052B81
:1043E0000CD97B6820225A657B68032283F835202C
:1043F0007B68002283F83420032315E07B681B6868
:104400001B6803F00103002BE4D17B68DB6D3F22C6
:104410009A40FB689A607B68012283F835207B68AC
:10442000002283F83420002318461037BD4680BD93
:1044300080B483B000AF78607B6893F83530DBB22E
:10444000022B04D07B6880225A6501230CE07B6834
:10445000052283F835207B681B681A687B681B6817
:1044600022F001021A60002318460C37BD465DF8A1
:10447000047B704780B586B000AF78600023BB60D6
:104480008E4B1B688E4AA2FB03239B0A7B617B68D1
:104490009B6D3B613B691B68FB607B68DB6D0822A1
:1044A0009A40FB681340002B1AD07B681B681B687E
:1044B00003F00403002B13D07B681B681A687B6829
:1044C0001B6822F004021A607B68DB6D08229A40A8
:1044D0003B699A607B685B6D43F001027B685A65BB
:1044E0007B68DB6D01229A40FB681340002B12D0E1
:1044F0007B681B685B6903F08003002B0BD07B6833
:10450000DB6D01229A403B699A607B685B6D43F0EA
:1045100002027B685A657B68DB6D04229A40FB6867
:104520001340002B12D07B681B681B6803F002034A
:10453000002B0BD07B68DB6D04229A403B699A60AC
:104540007B685B6D43F004027B685A657B68DB6DBA
:1045500010229A40FB681340002B43D07B681B68F5
:104560001B6803F00803002B3CD07B68DB6D102236
:104570009A403B699A607B681B681B6803F4802340
:10458000002B18D07B681B681B6803F40023002BEA
:1045900008D17B681B6C002B24D07B681B6C78686F
:1045A00098471FE07B689B6C002B1BD07B689B6C43
:1045B0007868984716E07B681B681B6803F4807373
:1045C000002B07D17B681B681A687B681B6822F088
:1045D00008021A607B681B6C002B03D07B681B6C85
:1045E000786898477B68DB6D20229A40FB6813400F
:1045F000002B00F08F807B681B681B6803F01003A2
:10460000002B00F087807B68DB6D20229A403B699D
:104610009A607B6893F83530DBB2052B36D17B6826
:104620001B681A687B681B6822F016021A607B6898
:104630001B685A697B681B6822F080025A617B689C
:104640001B6C002B03D17B689B6C002B07D07B6815
:104650001B681A687B681B6822F008021A607B6876
:10466000DB6D3F229A403B699A607B68012283F8A8
:1046700035207B68002283F834207B681B6D002B7B
:104680007ED07B681B6D7868984779E07B681B68F3
:104690001B6803F48023002B1DD07B681B681B68FC
:1046A00003F40023002B0DD17B685B6C002B31D011
:1046B0007B685B6C786898472CE000BF3000002076
:1046C000B5814E1B7B68DB6B002B23D07B68DB6BDB
:1046D000786898471EE07B681B681B6803F480734A
:1046E000002B0FD17B681B681A687B681B6822F05F
:1046F00010021A607B68012283F835207B68002253
:1047000083F834207B68DB6B002B03D07B68DB6B8A
:10471000786898477B685B6D002B32D07B685B6D57
:1047200003F00103002B22D07B68052283F835209B
:104730007B681B681A687B681B6822F001021A609C
:10474000BB680133BB607A699A4207D37B681B68F8
:104750001B6803F00103002BF2D100E000BF7B686F
:10476000012283F835207B68002283F834207B689F
:10477000DB6C002B05D07B68DB6C7868984700E029
:1047800000BF1837BD4680BD80B485B000AFF8606B
:10479000B9607A603B60FB681B681A68FB681B683D
:1047A00022F480221A60FB681B683A685A60FB6832
:1047B0009B68402B08D1FB681B687A689A60FB688D
:1047C0001B68BA68DA6007E0FB681B68BA689A6021
:1047D000FB681B687A68DA6000BF1437BD465DF875
:1047E000047B704780B485B000AF78607B681B683D
:1047F000DBB2103B144AA2FB03231B09FB60134AE4
:10480000FB6813441B781A467B68DA65FB68032B48
:1048100009D97B681B6823F47F7323F003031A1DF7
:104820007B689A6507E07B681B6823F47F7323F03D
:1048300003037A6893657B689B6D18461437BD4601
:104840005DF8047B704700BFABAAAAAA9068010874
:1048500080B485B000AF78600023FB737B689B6AEF
:10486000BB607B689B69002B1FD1BB68032B56D8AC
:1048700001A252F823F000BF894800089B480008B5
:10488000894800081F4900087B68DB6A03F08073D1
:10489000002B46D00123FB7343E07B68DB6AB3F156
:1048A000C07F40D10123FB733DE07B689B69B3F57A
:1048B000005F21D1BB68032B37D801A252F823F047
:1048C000D1480008D7480008D1480008E948000846
:1048D0000123FB7330E07B68DB6A03F08073002BFD
:1048E00025D00123FB7322E07B68DB6AB3F1C07F34
:1048F0001FD10123FB731CE0BB68022B03D9BB68EB
:10490000032B03D018E00123FB7315E07B68DB6AFF
:1049100003F08073002B0ED00123FB730BE000BF6C
:104920000AE000BF08E000BF06E000BF04E000BFEF
:1049300002E000BF00E000BFFB7B18461437BD4615
:104940005DF8047B704700BF80B489B000AF786029
:10495000396000237B6100233B610023BB6100239E
:10496000FB6177E10122FB6902FA03F37B613B689B
:104970001B687A6913403B613A697B699A4240F04F
:1049800066813B685B6803F00303012B05D03B683D
:104990005B6803F00303022B30D17B689B68BB612B
:1049A000FB695B00032202FA03F3DB43BA6913409D
:1049B000BB613B68DA68FB695B0002FA03F3BA6922
:1049C0001343BB617B68BA699A607B685B68BB61B3
:1049D0000122FB6902FA03F3DB43BA691340BB61AE
:1049E0003B685B681B0903F00102FB6902FA03F3F1
:1049F000BA691343BB617B68BA695A603B685B68FC
:104A000003F00303032B17D07B68DB68BB61FB69F2
:104A10005B00032202FA03F3DB43BA691340BB6174
:104A20003B689A68FB695B0002FA03F3BA691343B7
:104A3000BB617B68BA69DA603B685B6803F00303BB
:104A4000022B23D1FB69DA087B68083253F8223045
:104A5000BB61FB6903F007039B000F2202FA03F31B
:104A6000DB43BA691340BB613B681A69FB6903F019
:104A700007039B0002FA03F3BA691343BB61FB69A6
:104A8000DA087B680832B96943F822107B681B6832
:104A9000BB61FB695B00032202FA03F3DB43BA69E3
:104AA0001340BB613B685B6803F00302FB695B007A
:104AB00002FA03F3BA691343BB617B68BA691A60EF
:104AC0003B685B6803F44033002B00F0C080002398
:104AD000FB60664B5B6C654A43F480435364634BF5
:104AE0005B6C03F48043FB60FB68614AFB699B08D5
:104AF000023352F82330BB61FB6903F003039B00D0
:104B00000F2202FA03F3DB43BA691340BB617B68EF
:104B1000584A934237D07B68574A934231D07B68DA
:104B2000564A93422BD07B68554A934225D07B68E6
:104B3000544A93421FD07B68534A934219D07B68F2
:104B4000524A934213D07B68514A93420DD07B68FE
:104B5000504A934207D07B684F4A934201D10923C0
:104B600012E00A2310E008230EE007230CE00623DE
:104B70000AE0052308E0042306E0032304E00223FF
:104B800002E0012300E00023FA6902F00302920030
:104B90009340BA691343BB613549FB699B080233F3
:104BA000BA6941F823203D4B9B68BB613B69DB43FD
:104BB000BA691340BB613B685B6803F48013002B48
:104BC00003D0BA693B691343BB61344ABB69936044
:104BD000324BDB68BB613B69DB43BA691340BB61A5
:104BE0003B685B6803F40013002B03D0BA693B6990
:104BF0001343BB61294ABB69D360284B5B68BB6127
:104C00003B69DB43BA691340BB613B685B6803F4F3
:104C10000033002B03D0BA693B691343BB611F4AC1
:104C2000BB6953601D4B1B68BB613B69DB43BA69C1
:104C30001340BB613B685B6803F48033002B03D0F7
:104C4000BA693B691343BB61144ABB691360FB69D2
:104C50000133FB61FB690F2B7FF684AE00BF00BF01
:104C60002437BD465DF8047B704700BF0038024022
:104C700000380140000002400004024000080240E9
:104C8000000C0240001002400014024000180240D4
:104C9000001C02400020024000240240003C014071
:104CA00080B483B000AF78600B467B8013467B7086
:104CB0007B78002B03D07A887B689A6103E07B883D
:104CC0001A047B689A6100BF0C37BD465DF8047B0F
:104CD000704780B485B000AF78600B467B807B68FE
:104CE0005B69FB607A88FB6813401A04FB68D94350
:104CF0007B880B401A437B689A6100BF1437BD461E
:104D00005DF8047B7047F0B58FB00AAF78607B68C0
:104D1000002B01D101230FE17B681B68BB607B681E
:104D200093F8BD34DBB2002B06D17B68002283F8F8
:104D3000BC2478680FF08AFC7B68032283F8BD24CA
:104D4000BB68DB6B03F48073002B02D17B6800220D
:104D50001A617B681B68184607F047FD7B681B6873
:104D60003B607E686D4606F110040FCC0FC50FCC7A
:104D70000FC594E8030085E80300331D0ECB3868A7
:104D800007F01EFC0346002B05D07B68022283F847
:104D9000BD240123D0E07B681B680021184607F082
:104DA00035FD0023FB734AE0FA7B79681346DB008C
:104DB00013449B000B443D3301221A70FA7B79683F
:104DC0001346DB0013449B000B443C33FA7B1A7000
:104DD000FA7BFB7B98B279681346DB0013449B0097
:104DE0000B44443302461A80FA7B79681346DB0091
:104DF00013449B000B44403300221A70FA7B7968FD
:104E00001346DB0013449B000B44483300221A6016
:104E1000FA7B79681346DB0013449B000B444C3348
:104E200000221A60FA7B79681346DB0013449B006A
:104E30000B44543300221A60FB7B0133FB73FA7B73
:104E40007B685B689A42AFD30023FB7344E0FA7B34
:104E500079681346DB0013449B000B4403F27D2367
:104E600000221A70FA7B79681346DB0013449B001A
:104E70000B4403F51F73FA7B1A70FA7B79681346AB
:104E8000DB0013449B000B4403F5207300221A70CF
:104E9000FA7B79681346DB0013449B000B4403F54F
:104EA000227300221A60FA7B79681346DB001344F0
:104EB0009B000B4403F5237300221A60FA7B796888
:104EC0001346DB0013449B000B4403F525730022BB
:104ED0001A60FB7B0133FB73FA7B7B685B689A4249
:104EE000B5D37B681B683B607E686D4606F1100495
:104EF0000FCC0FC50FCC0FC594E8030085E8030065
:104F0000331D0ECB386807F0CDFC0346002B05D0CF
:104F10007B68022283F8BD2401230DE07B68002218
:104F200083F838207B68012283F8BD247B681B68E6
:104F3000184608F01CFE002318461437BD46F0BD85
:104F400080B584B000AF78607B681B68FB607B68CD
:104F500093F8BC34012B01D1022320E07B680122AD
:104F600083F8BC247B689B6A012B09D17B689B6911
:104F7000012B05D0FB689B6B43F48032FB689A637E
:104F80007B681B68184607F01FFC7B681B68184687
:104F900008F0CCFD7B68002283F8BC24002318466F
:104FA0001037BD4680BD90B58DB000AF78607B688E
:104FB0001B683B623B6AFB617B681B68184608F014
:104FC0008AFE0346002B40F08A847B681B681846E3
:104FD00008F0EEFD0346002B00F08084FB6903F52A
:104FE00000639B681B0AC3F30D027B68C3F8FC24B3
:104FF0007B681B68184608F0DBFD034603F00203DC
:10500000022B07D17B681B685A697B681B6802F01A
:1050100002025A617B681B68184608F0C9FD034606
:1050200003F01003102B61D17B681B689A697B68C1
:105030001B6822F010029A613B6A1B6ABB61BB6964
:1050400003F00F021346DB0013449B0003F51E73AD
:105050007A68134404337B61BB695B0C03F00F0374
:10506000022B24D1BA6947F6F0731340002B35D0D8
:105070007B691969BB691B099BB2C3F30A039BB225
:105080001A46386A08F000FC7B691A69BB691B097B
:10509000C3F30A031A447B691A617B691A6ABB6904
:1050A0001B09C3F30A031A447B691A6216E0BB6941
:1050B0005B0C03F00F03062B10D17B6803F2C44393
:1050C00008221946386A08F0DFFB7B691A6ABB6957
:1050D0001B09C3F30A031A447B691A627B681B68C5
:1050E0009A697B681B6842F010029A617B681B68B2
:1050F000184608F05DFD034603F40023B3F5002FC6
:1051000040F0A78000237B627B681B68184608F08C
:1051100062FDB86299E0BB6A03F00103002B00F066
:105120008E807B681B687A6AD2B21146184608F0F6
:1051300086FD38613B6903F00103002B0CD07B6ACC
:105140005A01FB69134403F530631A460123936047
:10515000796A786800F0C2FE3B6903F00803002B0F
:105160000CD07B6A5A01FB69134403F530631A467D
:1051700008239360796A786800F098FF3B6903F030
:105180001003002B08D07B6A5A01FB69134403F516
:1051900030631A46102393603B6903F00203002B2F
:1051A00030D03B6A5B6903F08003802B09D1FB6937
:1051B00003F500635B68FA6902F5006243F48063FB
:1051C00053607A6A1346DB0013449B0003F51E7399
:1051D0007A68134404337B617B69DB78012B08D147
:1051E0007B690022DA707B6ADBB2194678680FF0BF
:1051F00033FB7B6A5A01FB69134403F530631A469B
:10520000022393603B6903F02003002B08D07B6AE4
:105210005A01FB69134403F530631A462023936057
:105220003B6903F40053002B09D07B6A5A01FB69E8
:10523000134403F530631A464FF4005393607B6ABE
:1052400001337B62BB6A5B08BB62BB6A002B7FF4E5
:1052500062AF7B681B68184608F0AAFC034603F49B
:105260008023B3F5802F40F0DB807B681B681846F5
:1052700008F0CBFCB86200237B62CDE0BB6A03F090
:105280000103002B00F0C2807B681B687A6AD2B2EF
:105290001146184608F0F1FC38613B6903F0010340
:1052A000002B57D07B6A03F00F03012202FA03F3AD
:1052B000FB60FB6903F500635A6BFB68DB43F9692C
:1052C00001F5006113404B637B6A5A01FB6913448B
:1052D00003F510631A46012393607B681B69012B59
:1052E00032D179687A6A1346DB0013449B000B4481
:1052F0004C33196878687A6A1346DB0013449B00C4
:10530000034448331B68194478687A6A1346DB0003
:1053100013449B0003444C3319607B6A002B13D168
:1053200079687A6A1346DB0013449B000B445433BC
:105330001B68002B08D17B6818687B6803F2C443A4
:105340001A46012108F0F8FC7B6ADBB2194678683E
:105350000FF0FDF93B6903F00803002B08D07B6ACE
:105360005A01FB69134403F510631A46082393603E
:105370003B6903F01003002B08D07B6A5A01FB69DC
:10538000134403F510631A46102393603B6903F03E
:105390004003002B08D07B6A5A01FB69134403F5D4
:1053A00010631A46402393603B6903F00203002B0D
:1053B00023D0796A386A07F0D9FB7A6A1346DB0092
:1053C00013449B0038337A68134404337B617B6950
:1053D000DB78012B08D17B690022DA707B6ADBB2B3
:1053E000194678680FF04AFA7B6A5A01FB69134440
:1053F00003F510631A46022393603B6903F08003B0
:10540000002B03D0796A786800F0DBFC7B6A0133FB
:105410007B62BB6A5B08BB62BB6A002B7FF42EAF6A
:105420007B681B68184608F0C3FB034603F0004383
:10543000B3F1004F22D1FB6903F500635B68FA69A1
:1054400002F5006223F0010353607B6893F8F434A3
:10545000012B08D17B68002283F8F42400217868AE
:1054600000F0C2FE02E078680FF0E8F97B681B6884
:105470005A697B681B6802F000425A617B681B68AE
:10548000184608F095FB034603F40063B3F5006F7C
:1054900012D1FB6903F500639B6803F00103012B44
:1054A00002D178680FF0A4F97B681B685A697B68A1
:1054B0001B6802F400625A617B681B68184608F09A
:1054C00077FB034603F48053B3F5805F40F0B78069
:1054D000FB6903F500635B68FA6902F5006223F07B
:1054E000010353607B681B681021184607F03EFBE0
:1054F0000023FB6246E0FB6A5A01FB69134403F593
:1055000010631A464FF67F339360FB6A5A01FB69BA
:10551000134403F510631B68FA6A5101FA690A44DF
:1055200002F5106223F400131360FB6A5A01FB6951
:10553000134403F530631A464FF67F339360FB6ADA
:105540005A01FB69134403F530631B68FA6A510181
:10555000FA690A4402F5306223F400131360FB6A0F
:105560005A01FB69134403F530631B68FA6A510161
:10557000FA690A4402F5306243F000631360FB6A83
:105580000133FB627B685B68FA6A9A42B3D3FB69BA
:1055900003F50063DB69FA6902F5006243F0011369
:1055A000D3617B681B6B002B16D0FB6903F500638E
:1055B000D3F88430FA6902F5006243F00B03C2F8B5
:1055C0008430FB6903F500635B6CFA6902F50062E5
:1055D00043F00B03536415E0FB6903F500635B695B
:1055E000FA6902F5006243F4005343F02B03536160
:1055F000FB6903F500631B69FA6902F5006243F079
:105600000B031361FB6903F500631B68FA6902F57C
:10561000006223F4FE6313607B6818687B681B6973
:10562000D9B27B6803F2C4431A4608F085FB7B6855
:105630001B685A697B681B6802F480525A617B6858
:105640001B68184608F0B4FA034603F40053B3F598
:10565000005F24D17B681B68184608F04AFB7B6812
:105660001B68184607F0FFFA03461A467B68DA60A3
:105670007B681C6801F0E8F901467B68DB68DBB2F7
:105680001A46204606F0FEFF78680FF088F87B681F
:105690001B685A697B681B6802F400525A617B6878
:1056A0001B68184608F084FA034603F00803082B29
:1056B0000AD178680FF065F87B681B685A697B68C7
:1056C0001B6802F008025A617B681B68184608F0E4
:1056D0006FFA034603F08003802B22D13B6A9B695B
:1056E00023F080023B6A9A6101237B6214E07968AF
:1056F0007A6A1346DB0013449B000B4403F27F23BA
:105700001B78012B05D17B6ADBB21946786800F063
:1057100027FB7B6A01337B627B685B687A6A9A420B
:10572000E5D37B681B68184608F042FA034603F489
:105730008013B3F5801F3BD101237B622BE07B6A92
:105740005A01FB69134403F510631B68BB61796858
:105750007A6A1346DB0013449B000B4440331B78EA
:10576000012B15D1BB69002B12DA79687A6A1346CE
:10577000DB0013449B000B443F3301221A707B6A09
:10578000DBB263F07F03DBB21946786800F0E8FA19
:105790007B6A01337B627B685B687A6A9A42CED30C
:1057A0007B681B685A697B681B6802F480125A6127
:1057B0007B681B68184608F0FBF9034603F40013E6
:1057C000B3F5001F55D101237B6245E07B6A5A0186
:1057D000FB69134403F530631B68BB6179687A6A1F
:1057E0001346DB0013449B000B4403F520731B7826
:1057F000012B2ED1BB69002B2BDABB6903F480325D
:105800007B68D3F8FC3403F001039A4221D1796814
:105810007A6A1346DB0013449B000B4403F27F2398
:1058200001221A703B6A9B6943F080023B6A9A61CD
:105830003B6A5B6903F08003002B0AD1FB6903F527
:1058400000635B68FA6902F5006243F40073536019
:1058500007E07B6A01337B627B685B687A6A9A4205
:10586000B4D37B681B685A697B681B6802F400121A
:105870005A617B681B68184608F09AF9034603F0E2
:105880008043B3F1804F0AD178680FF009F87B6844
:105890001B685A697B681B6802F080425A617B680A
:1058A0001B68184608F084F9034603F00403042B30
:1058B00015D17B681B685B68BB61BB6903F004039F
:1058C000002B02D078680EF0F9FF7B681B685968DE
:1058D0007B681B68BA690A435A6000E000BF34372E
:1058E000BD4690BD80B582B000AF78600B46FB70BE
:1058F0007B6893F8BC34012B01D1022313E07B6851
:10590000012283F8BC247B68FA7883F838207B680E
:105910001B68FA781146184608F0E2F87B68002206
:1059200083F8BC24002318460837BD4680BD80B5E7
:1059300084B000AF7860084611461A460346FB70F3
:105940000B463B801346BB700023FB7297F9033074
:10595000002B0FDAFB7803F00F021346DB00134431
:105960009B0038337A6813440433FB60FB680122E0
:105970005A700FE0FB7803F00F021346DB0013446C
:105980009B0003F51E737A6813440433FB60FB68C5
:1059900000225A70FB7803F00F03DAB2FB681A702A
:1059A0003A88FB68DA60FB68BA781A71FB685B7842
:1059B000002B04D0FB681B789AB2FB681A81BB7875
:1059C000022B02D1FB6800225A717B6893F8BC3429
:1059D000012B01D102230EE07B68012283F8BC2455
:1059E0007B681B68F968184607F062F97B6800223B
:1059F00083F8BC24FB7A18461037BD4680BD80B5BD
:105A000084B000AF78600B46FB7097F90330002B31
:105A10000FDAFB7803F00F021346DB0013449B0000
:105A200038337A6813440433FB60FB6801225A70F0
:105A30000FE0FB7803F00F021346DB0013449B00DA
:105A400003F51E737A6813440433FB60FB6800227D
:105A50005A70FB7803F00F03DAB2FB681A707B68A8
:105A600093F8BC34012B01D102230EE07B680122A4
:105A700083F8BC247B681B68F968184607F0A0F916
:105A80007B68002283F8BC24002318461037BD46EB
:105A900080BD80B586B000AFF8607A603B600B4691
:105AA000FB72FB7A03F00F021346DB0013449B00EA
:105AB00003F51E73FA68134404337B617B697A68CB
:105AC0001A617B693A689A617B6900221A627B6974
:105AD00000225A70FB7A03F00F03DAB27B691A7066
